
futureBlock=52
newaddress=mgjwLaVonPygirxNmDufA92bHiL7BT5DNw
pubkey=02c1d46f9d62e26eeda55481e39346f6bd19ea6edd19f5aa588f0be22ab3356135
pubkeyHash=
redeemScript=51b2752102c1d46f9d62e26eeda55481e39346f6bd19ea6edd19f5aa588f0be22ab3356135ac
redeemScriptHash=
scriptPubKey=
p2shAddress=2Mz3Xk4QdSRnjk5TL172zBkvBHpnFyHQiw8

signedrawtx=0100000053af476201d24db8533a74e015452cfc540c8da7e58b5caf827dcf1d94a6ca14f786c5033f00000000272651b2752102c1d46f9d62e26eeda55481e39346f6bd19ea6edd19f5aa588f0be22ab3356135ac010000000300000000000000001a6a18426c61636b636f696e2050726f6f66206f66205374616b65004429353a0000001976a91424e805b8b7d7c91882d8f467ffe6ee563c3400ee88acf01c29353a0000001976a9146dd7bc330a3c99e45425a1955da9c50a8940be9b88ac50000000 


{
  "txid": "d7b00070ce57e7c30452878e4f6315d56ec7b54dd1b15a294751ca83c23cf29c",
  "size": 197,
  "version": 1,
  "time": 1648865107,
  "locktime": 80,
  "vin": [
    {
      "txid": "3f03c586f714caa6941dcf7d82af5c8be5a78d0c54fc2c4515e0743a53b84dd2",
      "vout": 0,
      "scriptSig": {
        "asm": "51b2752102c1d46f9d62e26eeda55481e39346f6bd19ea6edd19f5aa588f0be22ab3356135ac",
        "hex": "2651b2752102c1d46f9d62e26eeda55481e39346f6bd19ea6edd19f5aa588f0be22ab3356135ac"
      },
      "sequence": 1
    }
  ],
  "vout": [
    {
      "value": 0.00000000,
      "n": 0,
      "scriptPubKey": {
        "asm": "OP_RETURN 426c61636b636f696e2050726f6f66206f66205374616b65",
        "hex": "6a18426c61636b636f696e2050726f6f66206f66205374616b65",
        "type": "nulldata"
      }
    },
    {
      "value": 2500.00000000,
      "n": 1,
      "scriptPubKey": {
        "asm": "OP_DUP OP_HASH160 24e805b8b7d7c91882d8f467ffe6ee563c3400ee OP_EQUALVERIFY OP_CHECKSIG",
        "hex": "76a91424e805b8b7d7c91882d8f467ffe6ee563c3400ee88ac",
        "reqSigs": 1,
        "type": "pubkeyhash",
        "addresses": [
          "mit6a9y39G3E7hEMZ1bAvAsSftWm4ruhFH"
        ]
      }
    },
    {
      "value": 2499.99990000,
      "n": 2,
      "scriptPubKey": {
        "asm": "OP_DUP OP_HASH160 6dd7bc330a3c99e45425a1955da9c50a8940be9b OP_EQUALVERIFY OP_CHECKSIG",
        "hex": "76a9146dd7bc330a3c99e45425a1955da9c50a8940be9b88ac",
        "reqSigs": 1,
        "type": "pubkeyhash",
        "addresses": [
          "mqXkPWERhSgjCrCto5PjZm4aMUNmbaPnVp"
        ]
      }
    }
  ]
}
